{
  "_format": "hh-sol-artifact-1",
  "contractName": "MiPrimerNFT",
  "sourceName": "contracts/MiPrimerNFT.sol",
  "abi": [
    {
      "inputs": [],
      "stateMutability": "nonpayable",
      "type": "constructor"
    },
    {
      "anonymous": false,
      "inputs": [
        {
          "indexed": true,
          "internalType": "address",
          "name": "owner",
          "type": "address"
        },
        {
          "indexed": true,
          "internalType": "address",
          "name": "approved",
          "type": "address"
        },
        {
          "indexed": true,
          "internalType": "uint256",
          "name": "tokenId",
          "type": "uint256"
        }
      ],
      "name": "Approval",
      "type": "event"
    },
    {
      "anonymous": false,
      "inputs": [
        {
          "indexed": true,
          "internalType": "address",
          "name": "owner",
          "type": "address"
        },
        {
          "indexed": true,
          "internalType": "address",
          "name": "operator",
          "type": "address"
        },
        {
          "indexed": false,
          "internalType": "bool",
          "name": "approved",
          "type": "bool"
        }
      ],
      "name": "ApprovalForAll",
      "type": "event"
    },
    {
      "anonymous": false,
      "inputs": [
        {
          "indexed": false,
          "internalType": "address",
          "name": "sender",
          "type": "address"
        },
        {
          "indexed": false,
          "internalType": "uint256",
          "name": "tokenId",
          "type": "uint256"
        }
      ],
      "name": "NewEpicNFTMinted",
      "type": "event"
    },
    {
      "anonymous": false,
      "inputs": [
        {
          "indexed": true,
          "internalType": "address",
          "name": "from",
          "type": "address"
        },
        {
          "indexed": true,
          "internalType": "address",
          "name": "to",
          "type": "address"
        },
        {
          "indexed": true,
          "internalType": "uint256",
          "name": "tokenId",
          "type": "uint256"
        }
      ],
      "name": "Transfer",
      "type": "event"
    },
    {
      "inputs": [
        {
          "internalType": "address",
          "name": "to",
          "type": "address"
        },
        {
          "internalType": "uint256",
          "name": "tokenId",
          "type": "uint256"
        }
      ],
      "name": "approve",
      "outputs": [],
      "stateMutability": "nonpayable",
      "type": "function"
    },
    {
      "inputs": [
        {
          "internalType": "address",
          "name": "owner",
          "type": "address"
        }
      ],
      "name": "balanceOf",
      "outputs": [
        {
          "internalType": "uint256",
          "name": "",
          "type": "uint256"
        }
      ],
      "stateMutability": "view",
      "type": "function"
    },
    {
      "inputs": [
        {
          "internalType": "uint256",
          "name": "tokenId",
          "type": "uint256"
        }
      ],
      "name": "getApproved",
      "outputs": [
        {
          "internalType": "address",
          "name": "",
          "type": "address"
        }
      ],
      "stateMutability": "view",
      "type": "function"
    },
    {
      "inputs": [
        {
          "internalType": "address",
          "name": "owner",
          "type": "address"
        },
        {
          "internalType": "address",
          "name": "operator",
          "type": "address"
        }
      ],
      "name": "isApprovedForAll",
      "outputs": [
        {
          "internalType": "bool",
          "name": "",
          "type": "bool"
        }
      ],
      "stateMutability": "view",
      "type": "function"
    },
    {
      "inputs": [],
      "name": "makeAnEpicNFT",
      "outputs": [],
      "stateMutability": "nonpayable",
      "type": "function"
    },
    {
      "inputs": [],
      "name": "name",
      "outputs": [
        {
          "internalType": "string",
          "name": "",
          "type": "string"
        }
      ],
      "stateMutability": "view",
      "type": "function"
    },
    {
      "inputs": [
        {
          "internalType": "uint256",
          "name": "tokenId",
          "type": "uint256"
        }
      ],
      "name": "ownerOf",
      "outputs": [
        {
          "internalType": "address",
          "name": "",
          "type": "address"
        }
      ],
      "stateMutability": "view",
      "type": "function"
    },
    {
      "inputs": [
        {
          "internalType": "uint256",
          "name": "tokenId",
          "type": "uint256"
        }
      ],
      "name": "pickRandomFirstWord",
      "outputs": [
        {
          "internalType": "string",
          "name": "",
          "type": "string"
        }
      ],
      "stateMutability": "view",
      "type": "function"
    },
    {
      "inputs": [
        {
          "internalType": "uint256",
          "name": "tokenId",
          "type": "uint256"
        }
      ],
      "name": "pickRandomSecondWord",
      "outputs": [
        {
          "internalType": "string",
          "name": "",
          "type": "string"
        }
      ],
      "stateMutability": "view",
      "type": "function"
    },
    {
      "inputs": [
        {
          "internalType": "uint256",
          "name": "tokenId",
          "type": "uint256"
        }
      ],
      "name": "pickRandomThirdWord",
      "outputs": [
        {
          "internalType": "string",
          "name": "",
          "type": "string"
        }
      ],
      "stateMutability": "view",
      "type": "function"
    },
    {
      "inputs": [
        {
          "internalType": "address",
          "name": "from",
          "type": "address"
        },
        {
          "internalType": "address",
          "name": "to",
          "type": "address"
        },
        {
          "internalType": "uint256",
          "name": "tokenId",
          "type": "uint256"
        }
      ],
      "name": "safeTransferFrom",
      "outputs": [],
      "stateMutability": "nonpayable",
      "type": "function"
    },
    {
      "inputs": [
        {
          "internalType": "address",
          "name": "from",
          "type": "address"
        },
        {
          "internalType": "address",
          "name": "to",
          "type": "address"
        },
        {
          "internalType": "uint256",
          "name": "tokenId",
          "type": "uint256"
        },
        {
          "internalType": "bytes",
          "name": "_data",
          "type": "bytes"
        }
      ],
      "name": "safeTransferFrom",
      "outputs": [],
      "stateMutability": "nonpayable",
      "type": "function"
    },
    {
      "inputs": [
        {
          "internalType": "address",
          "name": "operator",
          "type": "address"
        },
        {
          "internalType": "bool",
          "name": "approved",
          "type": "bool"
        }
      ],
      "name": "setApprovalForAll",
      "outputs": [],
      "stateMutability": "nonpayable",
      "type": "function"
    },
    {
      "inputs": [
        {
          "internalType": "bytes4",
          "name": "interfaceId",
          "type": "bytes4"
        }
      ],
      "name": "supportsInterface",
      "outputs": [
        {
          "internalType": "bool",
          "name": "",
          "type": "bool"
        }
      ],
      "stateMutability": "view",
      "type": "function"
    },
    {
      "inputs": [],
      "name": "symbol",
      "outputs": [
        {
          "internalType": "string",
          "name": "",
          "type": "string"
        }
      ],
      "stateMutability": "view",
      "type": "function"
    },
    {
      "inputs": [
        {
          "internalType": "uint256",
          "name": "tokenId",
          "type": "uint256"
        }
      ],
      "name": "tokenURI",
      "outputs": [
        {
          "internalType": "string",
          "name": "",
          "type": "string"
        }
      ],
      "stateMutability": "view",
      "type": "function"
    },
    {
      "inputs": [
        {
          "internalType": "address",
          "name": "from",
          "type": "address"
        },
        {
          "internalType": "address",
          "name": "to",
          "type": "address"
        },
        {
          "internalType": "uint256",
          "name": "tokenId",
          "type": "uint256"
        }
      ],
      "name": "transferFrom",
      "outputs": [],
      "stateMutability": "nonpayable",
      "type": "function"
    }
  ],
  "bytecode": "0x608060405260405180610160016040528061012f8152602001620041f061012f913960089080519060200190620000389291906200067e565b506040518060c001604052806040518060400160405280600881526020017f4e65796d61724a7200000000000000000000000000000000000000000000000081525081526020016040518060400160405280600481526020017f4d616e650000000000000000000000000000000000000000000000000000000081525081526020016040518060400160405280600881526020017f537465726c696e6700000000000000000000000000000000000000000000000081525081526020016040518060400160405280600781526020017f496e7369676e650000000000000000000000000000000000000000000000000081525081526020016040518060400160405280600681526020017f48617a617264000000000000000000000000000000000000000000000000000081525081526020016040518060400160405280600981526020017f4f7961727a6162616c00000000000000000000000000000000000000000000008152508152506009906006620001b69291906200070f565b506040518060c001604052806040518060400160405280600b81526020017f4c6577616e646f77736b6900000000000000000000000000000000000000000081525081526020016040518060400160405280600781526020017f526f6e616c646f0000000000000000000000000000000000000000000000000081525081526020016040518060400160405280600681526020017f4d6261707065000000000000000000000000000000000000000000000000000081525081526020016040518060400160405280600481526020017f4b616e650000000000000000000000000000000000000000000000000000000081525081526020016040518060400160405280600681526020017f53756172657a000000000000000000000000000000000000000000000000000081525081526020016040518060400160405280600781526020017f4861616c616e6400000000000000000000000000000000000000000000000000815250815250600a906006620003349291906200070f565b506040518060c001604052806040518060400160405280600581526020017f4d6573736900000000000000000000000000000000000000000000000000000081525081526020016040518060400160405280600581526020017f53616c616800000000000000000000000000000000000000000000000000000081525081526020016040518060400160405280600881526020017f4469204d6172696100000000000000000000000000000000000000000000000081525081526020016040518060400160405280600681526020017f4d616872657a000000000000000000000000000000000000000000000000000081525081526020016040518060400160405280600681526020017f5a6979656368000000000000000000000000000000000000000000000000000081525081526020016040518060400160405280600681526020017f4368696573610000000000000000000000000000000000000000000000000000815250815250600b906006620004b29291906200070f565b50348015620004c057600080fd5b506040518060400160405280601781526020017f4c6f734d656a6f72657344656c616e7465726f734e46540000000000000000008152506040518060400160405280601481526020017f4c4f534d454a4f52455344454c414e5445524f530000000000000000000000008152508160009080519060200190620005459291906200067e565b5080600190805190602001906200055e9291906200067e565b505050620005ac6040518060400160405280601781526020017f45737465206573206d6920636f6e747261746f204e4654000000000000000000815250620005b260201b6200118a1760201c565b62000930565b6200065281604051602401620005c9919062000844565b6040516020818303038152906040527f41304fac000000000000000000000000000000000000000000000000000000007bffffffffffffffffffffffffffffffffffffffffffffffffffffffff19166020820180517bffffffffffffffffffffffffffffffffffffffffffffffffffffffff83818316178352505050506200065560201b60201c565b50565b60008151905060006a636f6e736f6c652e6c6f679050602083016000808483855afa5050505050565b8280546200068c90620008ba565b90600052602060002090601f016020900481019282620006b05760008555620006fc565b82601f10620006cb57805160ff1916838001178555620006fc565b82800160010185558215620006fc579182015b82811115620006fb578251825591602001919060010190620006de565b5b5090506200070b919062000776565b5090565b82805482825590600052602060002090810192821562000763579160200282015b8281111562000762578251829080519060200190620007519291906200067e565b509160200191906001019062000730565b5b50905062000772919062000795565b5090565b5b808211156200079157600081600090555060010162000777565b5090565b5b80821115620007b95760008181620007af9190620007bd565b5060010162000796565b5090565b508054620007cb90620008ba565b6000825580601f10620007df575062000800565b601f016020900490600052602060002090810190620007ff919062000776565b5b50565b6000620008108262000868565b6200081c818562000873565b93506200082e81856020860162000884565b62000839816200091f565b840191505092915050565b6000602082019050818103600083015262000860818462000803565b905092915050565b600081519050919050565b600082825260208201905092915050565b60005b83811015620008a457808201518184015260208101905062000887565b83811115620008b4576000848401525b50505050565b60006002820490506001821680620008d357607f821691505b60208210811415620008ea57620008e9620008f0565b5b50919050565b7f4e487b7100000000000000000000000000000000000000000000000000000000600052602260045260246000fd5b6000601f19601f8301169050919050565b6138b080620009406000396000f3fe608060405234801561001057600080fd5b506004361061010b5760003560e01c806370a08231116100a2578063b88d4fde11610071578063b88d4fde146102dc578063c575757a146102f8578063c87b56dd14610328578063de9d132f14610358578063e985e9c5146103625761010b565b806370a082311461024257806395d89b4114610272578063a22cb46514610290578063b187301f146102ac5761010b565b806323b872dd116100de57806323b872dd146101aa5780632de38d68146101c657806342842e0e146101f65780636352211e146102125761010b565b806301ffc9a71461011057806306fdde0314610140578063081812fc1461015e578063095ea7b31461018e575b600080fd5b61012a600480360381019061012591906124eb565b610392565b6040516101379190613189565b60405180910390f35b610148610474565b60405161015591906131a4565b60405180910390f35b6101786004803603810190610173919061253d565b610506565b60405161018591906130f9565b60405180910390f35b6101a860048036038101906101a391906124af565b61058b565b005b6101c460048036038101906101bf91906123a9565b6106a3565b005b6101e060048036038101906101db919061253d565b610703565b6040516101ed91906131a4565b60405180910390f35b610210600480360381019061020b91906123a9565b610821565b005b61022c6004803603810190610227919061253d565b610841565b60405161023991906130f9565b60405180910390f35b61025c60048036038101906102579190612344565b6108f3565b60405161026991906133c6565b60405180910390f35b61027a6109ab565b60405161028791906131a4565b60405180910390f35b6102aa60048036038101906102a59190612473565b610a3d565b005b6102c660048036038101906102c1919061253d565b610a53565b6040516102d391906131a4565b60405180910390f35b6102f660048036038101906102f191906123f8565b610b71565b005b610312600480360381019061030d919061253d565b610bd3565b60405161031f91906131a4565b60405180910390f35b610342600480360381019061033d919061253d565b610cf1565b60405161034f91906131a4565b60405180910390f35b610360610e43565b005b61037c6004803603810190610377919061236d565b6110f6565b6040516103899190613189565b60405180910390f35b60007f80ac58cd000000000000000000000000000000000000000000000000000000007bffffffffffffffffffffffffffffffffffffffffffffffffffffffff1916827bffffffffffffffffffffffffffffffffffffffffffffffffffffffff1916148061045d57507f5b5e139f000000000000000000000000000000000000000000000000000000007bffffffffffffffffffffffffffffffffffffffffffffffffffffffff1916827bffffffffffffffffffffffffffffffffffffffffffffffffffffffff1916145b8061046d575061046c82611223565b5b9050919050565b60606000805461048390613665565b80601f01602080910402602001604051908101604052809291908181526020018280546104af90613665565b80156104fc5780601f106104d1576101008083540402835291602001916104fc565b820191906000526020600020905b8154815290600101906020018083116104df57829003601f168201915b5050505050905090565b60006105118261128d565b610550576040517f08c379a000000000000000000000000000000000000000000000000000000000815260040161054790613326565b60405180910390fd5b6004600083815260200190815260200160002060009054906101000a900473ffffffffffffffffffffffffffffffffffffffff169050919050565b600061059682610841565b90508073ffffffffffffffffffffffffffffffffffffffff168373ffffffffffffffffffffffffffffffffffffffff161415610607576040517f08c379a00000000000000000000000000000000000000000000000000000000081526004016105fe90613386565b60405180910390fd5b8073ffffffffffffffffffffffffffffffffffffffff166106266112f9565b73ffffffffffffffffffffffffffffffffffffffff16148061065557506106548161064f6112f9565b6110f6565b5b610694576040517f08c379a000000000000000000000000000000000000000000000000000000000815260040161068b90613266565b60405180910390fd5b61069e8383611301565b505050565b6106b46106ae6112f9565b826113ba565b6106f3576040517f08c379a00000000000000000000000000000000000000000000000000000000081526004016106ea906133a6565b60405180910390fd5b6106fe838383611498565b505050565b60606000610737610713846116f4565b60405160200161072391906130b5565b6040516020818303038152906040526118a1565b90506009805490508161074a91906136e0565b905060098181548110610786577f4e487b7100000000000000000000000000000000000000000000000000000000600052603260045260246000fd5b90600052602060002001805461079b90613665565b80601f01602080910402602001604051908101604052809291908181526020018280546107c790613665565b80156108145780601f106107e957610100808354040283529160200191610814565b820191906000526020600020905b8154815290600101906020018083116107f757829003601f168201915b5050505050915050919050565b61083c83838360405180602001604052806000815250610b71565b505050565b6000806002600084815260200190815260200160002060009054906101000a900473ffffffffffffffffffffffffffffffffffffffff169050600073ffffffffffffffffffffffffffffffffffffffff168173ffffffffffffffffffffffffffffffffffffffff1614156108ea576040517f08c379a00000000000000000000000000000000000000000000000000000000081526004016108e1906132a6565b60405180910390fd5b80915050919050565b60008073ffffffffffffffffffffffffffffffffffffffff168273ffffffffffffffffffffffffffffffffffffffff161415610964576040517f08c379a000000000000000000000000000000000000000000000000000000000815260040161095b90613286565b60405180910390fd5b600360008373ffffffffffffffffffffffffffffffffffffffff1673ffffffffffffffffffffffffffffffffffffffff168152602001908152602001600020549050919050565b6060600180546109ba90613665565b80601f01602080910402602001604051908101604052809291908181526020018280546109e690613665565b8015610a335780601f10610a0857610100808354040283529160200191610a33565b820191906000526020600020905b815481529060010190602001808311610a1657829003601f168201915b5050505050905090565b610a4f610a486112f9565b83836118d4565b5050565b60606000610a87610a63846116f4565b604051602001610a73919061304e565b6040516020818303038152906040526118a1565b9050600a8054905081610a9a91906136e0565b9050600a8181548110610ad6577f4e487b7100000000000000000000000000000000000000000000000000000000600052603260045260246000fd5b906000526020600020018054610aeb90613665565b80601f0160208091040260200160405190810160405280929190818152602001828054610b1790613665565b8015610b645780601f10610b3957610100808354040283529160200191610b64565b820191906000526020600020905b815481529060010190602001808311610b4757829003601f168201915b5050505050915050919050565b610b82610b7c6112f9565b836113ba565b610bc1576040517f08c379a0000000000000000000000000000000000000000000000000000000008152600401610bb8906133a6565b60405180910390fd5b610bcd84848484611a41565b50505050565b60606000610c07610be3846116f4565b604051602001610bf3919061302c565b6040516020818303038152906040526118a1565b9050600b8054905081610c1a91906136e0565b9050600b8181548110610c56577f4e487b7100000000000000000000000000000000000000000000000000000000600052603260045260246000fd5b906000526020600020018054610c6b90613665565b80601f0160208091040260200160405190810160405280929190818152602001828054610c9790613665565b8015610ce45780601f10610cb957610100808354040283529160200191610ce4565b820191906000526020600020905b815481529060010190602001808311610cc757829003601f168201915b5050505050915050919050565b6060610cfc8261128d565b610d3b576040517f08c379a0000000000000000000000000000000000000000000000000000000008152600401610d3290613306565b60405180910390fd5b6000600660008481526020019081526020016000208054610d5b90613665565b80601f0160208091040260200160405190810160405280929190818152602001828054610d8790613665565b8015610dd45780601f10610da957610100808354040283529160200191610dd4565b820191906000526020600020905b815481529060010190602001808311610db757829003601f168201915b505050505090506000610de5611a9d565b9050600081511415610dfb578192505050610e3e565b600082511115610e30578082604051602001610e18929190612f6c565b60405160208183030381529060405292505050610e3e565b610e3984611ab4565b925050505b919050565b6000610e4f6007611b5b565b90506000610e5c82610703565b90506000610e6983610a53565b90506000610e7684610bd3565b90506000838383604051602001610e8f93929190612f90565b604051602081830303815290604052905060006008858585604051602001610eba9493929190612fc1565b6040516020818303038152906040529050610f096040518060400160405280601581526020017f0a2d2d2d2d2d2d2d2d2d2d2d2d2d2d2d2d2d2d2d2d000000000000000000000081525061118a565b610f128161118a565b610f506040518060400160405280601581526020017f2d2d2d2d2d2d2d2d2d2d2d2d2d2d2d2d2d2d2d2d0a000000000000000000000081525061118a565b6000610f8483610f5f84611b69565b604051602001610f70929190613070565b604051602081830303815290604052611b69565b9050600081604051602001610f9991906130d7565b6040516020818303038152906040529050610fe86040518060400160405280601581526020017f0a2d2d2d2d2d2d2d2d2d2d2d2d2d2d2d2d2d2d2d2d000000000000000000000081525061118a565b61101081604051602001610ffc919061300a565b60405160208183030381529060405261118a565b61104e6040518060400160405280601581526020017f2d2d2d2d2d2d2d2d2d2d2d2d2d2d2d2d2d2d2d2d0a000000000000000000000081525061118a565b6110578161118a565b6110956040518060400160405280601581526020017f2d2d2d2d2d2d2d2d2d2d2d2d2d2d2d2d2d2d2d2d0a000000000000000000000081525061118a565b61109f3389611d27565b6110a98882611d45565b6110b36007611db9565b7febb98688741ffa4c7589bf325de30cf7becb63de567842e1ccdb6cb949fdc82c33896040516110e4929190613160565b60405180910390a15050505050505050565b6000600560008473ffffffffffffffffffffffffffffffffffffffff1673ffffffffffffffffffffffffffffffffffffffff16815260200190815260200160002060008373ffffffffffffffffffffffffffffffffffffffff1673ffffffffffffffffffffffffffffffffffffffff16815260200190815260200160002060009054906101000a900460ff16905092915050565b6112208160405160240161119e91906131a4565b6040516020818303038152906040527f41304fac000000000000000000000000000000000000000000000000000000007bffffffffffffffffffffffffffffffffffffffffffffffffffffffff19166020820180517bffffffffffffffffffffffffffffffffffffffffffffffffffffffff8381831617835250505050611dcf565b50565b60007f01ffc9a7000000000000000000000000000000000000000000000000000000007bffffffffffffffffffffffffffffffffffffffffffffffffffffffff1916827bffffffffffffffffffffffffffffffffffffffffffffffffffffffff1916149050919050565b60008073ffffffffffffffffffffffffffffffffffffffff166002600084815260200190815260200160002060009054906101000a900473ffffffffffffffffffffffffffffffffffffffff1673ffffffffffffffffffffffffffffffffffffffff1614159050919050565b600033905090565b816004600083815260200190815260200160002060006101000a81548173ffffffffffffffffffffffffffffffffffffffff021916908373ffffffffffffffffffffffffffffffffffffffff160217905550808273ffffffffffffffffffffffffffffffffffffffff1661137483610841565b73ffffffffffffffffffffffffffffffffffffffff167f8c5be1e5ebec7d5bd14f71427d1e84f3dd0314c0f7b2291e5b200ac8c7c3b92560405160405180910390a45050565b60006113c58261128d565b611404576040517f08c379a00000000000000000000000000000000000000000000000000000000081526004016113fb90613246565b60405180910390fd5b600061140f83610841565b90508073ffffffffffffffffffffffffffffffffffffffff168473ffffffffffffffffffffffffffffffffffffffff16148061147e57508373ffffffffffffffffffffffffffffffffffffffff1661146684610506565b73ffffffffffffffffffffffffffffffffffffffff16145b8061148f575061148e81856110f6565b5b91505092915050565b8273ffffffffffffffffffffffffffffffffffffffff166114b882610841565b73ffffffffffffffffffffffffffffffffffffffff161461150e576040517f08c379a000000000000000000000000000000000000000000000000000000000815260040161150590613346565b60405180910390fd5b600073ffffffffffffffffffffffffffffffffffffffff168273ffffffffffffffffffffffffffffffffffffffff16141561157e576040517f08c379a000000000000000000000000000000000000000000000000000000000815260040161157590613206565b60405180910390fd5b611589838383611df8565b611594600082611301565b6001600360008573ffffffffffffffffffffffffffffffffffffffff1673ffffffffffffffffffffffffffffffffffffffff16815260200190815260200160002060008282546115e4919061357b565b925050819055506001600360008473ffffffffffffffffffffffffffffffffffffffff1673ffffffffffffffffffffffffffffffffffffffff168152602001908152602001600020600082825461163b919061349a565b92505081905550816002600083815260200190815260200160002060006101000a81548173ffffffffffffffffffffffffffffffffffffffff021916908373ffffffffffffffffffffffffffffffffffffffff160217905550808273ffffffffffffffffffffffffffffffffffffffff168473ffffffffffffffffffffffffffffffffffffffff167fddf252ad1be2c89b69c2b068fc378daa952ba7f163c4a11628f55a4df523b3ef60405160405180910390a4505050565b6060600082141561173c576040518060400160405280600181526020017f3000000000000000000000000000000000000000000000000000000000000000815250905061189c565b600082905060005b6000821461176e57808061175790613697565b915050600a8261176791906134f0565b9150611744565b60008167ffffffffffffffff8111156117b0577f4e487b7100000000000000000000000000000000000000000000000000000000600052604160045260246000fd5b6040519080825280601f01601f1916602001820160405280156117e25781602001600182028036833780820191505090505b5090505b60008514611895576001826117fb919061357b565b9150600a8561180a91906136e0565b6030611816919061349a565b60f81b818381518110611852577f4e487b7100000000000000000000000000000000000000000000000000000000600052603260045260246000fd5b60200101907effffffffffffffffffffffffffffffffffffffffffffffffffffffffffffff1916908160001a905350600a8561188e91906134f0565b94506117e6565b8093505050505b919050565b6000816040516020016118b49190612f55565b6040516020818303038152906040528051906020012060001c9050919050565b8173ffffffffffffffffffffffffffffffffffffffff168373ffffffffffffffffffffffffffffffffffffffff161415611943576040517f08c379a000000000000000000000000000000000000000000000000000000000815260040161193a90613226565b60405180910390fd5b80600560008573ffffffffffffffffffffffffffffffffffffffff1673ffffffffffffffffffffffffffffffffffffffff16815260200190815260200160002060008473ffffffffffffffffffffffffffffffffffffffff1673ffffffffffffffffffffffffffffffffffffffff16815260200190815260200160002060006101000a81548160ff0219169083151502179055508173ffffffffffffffffffffffffffffffffffffffff168373ffffffffffffffffffffffffffffffffffffffff167f17307eab39ab6107e8899845ad3d59bd9653f200f220920489ca2b5937696c3183604051611a349190613189565b60405180910390a3505050565b611a4c848484611498565b611a5884848484611dfd565b611a97576040517f08c379a0000000000000000000000000000000000000000000000000000000008152600401611a8e906131c6565b60405180910390fd5b50505050565b606060405180602001604052806000815250905090565b6060611abf8261128d565b611afe576040517f08c379a0000000000000000000000000000000000000000000000000000000008152600401611af590613366565b60405180910390fd5b6000611b08611a9d565b90506000815111611b285760405180602001604052806000815250611b53565b80611b32846116f4565b604051602001611b43929190612f6c565b6040516020818303038152906040525b915050919050565b600081600001549050919050565b60606000825190506000811415611b925760405180602001604052806000815250915050611d22565b60006003600283611ba3919061349a565b611bad91906134f0565b6004611bb99190613521565b90506000602082611bca919061349a565b67ffffffffffffffff811115611c09577f4e487b7100000000000000000000000000000000000000000000000000000000600052604160045260246000fd5b6040519080825280601f01601f191660200182016040528015611c3b5781602001600182028036833780820191505090505b509050600060405180606001604052806040815260200161383b604091399050600181016020830160005b86811015611cdf5760038101905062ffffff818a015116603f8160121c168401518060081b905060ff603f83600c1c1686015116810190508060081b905060ff603f8360061c1686015116810190508060081b905060ff603f831686015116810190508060e01b90508084526004840193505050611c66565b506003860660018114611cf95760028114611d0957611d14565b613d3d60f01b6002830352611d14565b603d60f81b60018303525b508484525050819450505050505b919050565b611d41828260405180602001604052806000815250611f94565b5050565b611d4e8261128d565b611d8d576040517f08c379a0000000000000000000000000000000000000000000000000000000008152600401611d84906132c6565b60405180910390fd5b80600660008481526020019081526020016000209080519060200190611db49291906121d0565b505050565b6001816000016000828254019250508190555050565b60008151905060006a636f6e736f6c652e6c6f679050602083016000808483855afa5050505050565b505050565b6000611e1e8473ffffffffffffffffffffffffffffffffffffffff16611fef565b15611f87578373ffffffffffffffffffffffffffffffffffffffff1663150b7a02611e476112f9565b8786866040518563ffffffff1660e01b8152600401611e699493929190613114565b602060405180830381600087803b158015611e8357600080fd5b505af1925050508015611eb457506040513d601f19601f82011682018060405250810190611eb19190612514565b60015b611f37573d8060008114611ee4576040519150601f19603f3d011682016040523d82523d6000602084013e611ee9565b606091505b50600081511415611f2f576040517f08c379a0000000000000000000000000000000000000000000000000000000008152600401611f26906131c6565b60405180910390fd5b805181602001fd5b63150b7a0260e01b7bffffffffffffffffffffffffffffffffffffffffffffffffffffffff1916817bffffffffffffffffffffffffffffffffffffffffffffffffffffffff191614915050611f8c565b600190505b949350505050565b611f9e8383612002565b611fab6000848484611dfd565b611fea576040517f08c379a0000000000000000000000000000000000000000000000000000000008152600401611fe1906131c6565b60405180910390fd5b505050565b600080823b905060008111915050919050565b600073ffffffffffffffffffffffffffffffffffffffff168273ffffffffffffffffffffffffffffffffffffffff161415612072576040517f08c379a0000000000000000000000000000000000000000000000000000000008152600401612069906132e6565b60405180910390fd5b61207b8161128d565b156120bb576040517f08c379a00000000000000000000000000000000000000000000000000000000081526004016120b2906131e6565b60405180910390fd5b6120c760008383611df8565b6001600360008473ffffffffffffffffffffffffffffffffffffffff1673ffffffffffffffffffffffffffffffffffffffff1681526020019081526020016000206000828254612117919061349a565b92505081905550816002600083815260200190815260200160002060006101000a81548173ffffffffffffffffffffffffffffffffffffffff021916908373ffffffffffffffffffffffffffffffffffffffff160217905550808273ffffffffffffffffffffffffffffffffffffffff16600073ffffffffffffffffffffffffffffffffffffffff167fddf252ad1be2c89b69c2b068fc378daa952ba7f163c4a11628f55a4df523b3ef60405160405180910390a45050565b8280546121dc90613665565b90600052602060002090601f0160209004810192826121fe5760008555612245565b82601f1061221757805160ff1916838001178555612245565b82800160010185558215612245579182015b82811115612244578251825591602001919060010190612229565b5b5090506122529190612256565b5090565b5b8082111561226f576000816000905550600101612257565b5090565b600061228661228184613412565b6133e1565b90508281526020810184848401111561229e57600080fd5b6122a9848285613623565b509392505050565b6000813590506122c0816137de565b92915050565b6000813590506122d5816137f5565b92915050565b6000813590506122ea8161380c565b92915050565b6000815190506122ff8161380c565b92915050565b600082601f83011261231657600080fd5b8135612326848260208601612273565b91505092915050565b60008135905061233e81613823565b92915050565b60006020828403121561235657600080fd5b6000612364848285016122b1565b91505092915050565b6000806040838503121561238057600080fd5b600061238e858286016122b1565b925050602061239f858286016122b1565b9150509250929050565b6000806000606084860312156123be57600080fd5b60006123cc868287016122b1565b93505060206123dd868287016122b1565b92505060406123ee8682870161232f565b9150509250925092565b6000806000806080858703121561240e57600080fd5b600061241c878288016122b1565b945050602061242d878288016122b1565b935050604061243e8782880161232f565b925050606085013567ffffffffffffffff81111561245b57600080fd5b61246787828801612305565b91505092959194509250565b6000806040838503121561248657600080fd5b6000612494858286016122b1565b92505060206124a5858286016122c6565b9150509250929050565b600080604083850312156124c257600080fd5b60006124d0858286016122b1565b92505060206124e18582860161232f565b9150509250929050565b6000602082840312156124fd57600080fd5b600061250b848285016122db565b91505092915050565b60006020828403121561252657600080fd5b6000612534848285016122f0565b91505092915050565b60006020828403121561254f57600080fd5b600061255d8482850161232f565b91505092915050565b61256f816135af565b82525050565b61257e816135c1565b82525050565b600061258f82613457565b612599818561346d565b93506125a9818560208601613632565b6125b2816137cd565b840191505092915050565b60006125c882613462565b6125d2818561347e565b93506125e2818560208601613632565b6125eb816137cd565b840191505092915050565b600061260182613462565b61260b818561348f565b935061261b818560208601613632565b80840191505092915050565b6000815461263481613665565b61263e818661348f565b94506001821660008114612659576001811461266a5761269d565b60ff1983168652818601935061269d565b61267385613442565b60005b8381101561269557815481890152600182019150602081019050612676565b838801955050505b50505092915050565b60006126b360258361348f565b91507f68747470733a2f2f6e6674707265766965772e30786465762e636f6465732f3f60008301527f636f64653d0000000000000000000000000000000000000000000000000000006020830152602582019050919050565b600061271960328361347e565b91507f4552433732313a207472616e7366657220746f206e6f6e20455243373231526560008301527f63656976657220696d706c656d656e74657200000000000000000000000000006020830152604082019050919050565b600061277f601c8361347e565b91507f4552433732313a20746f6b656e20616c7265616479206d696e746564000000006000830152602082019050919050565b60006127bf600a8361348f565b91507f54484952445f574f5244000000000000000000000000000000000000000000006000830152600a82019050919050565b60006127ff60248361347e565b91507f4552433732313a207472616e7366657220746f20746865207a65726f2061646460008301527f72657373000000000000000000000000000000000000000000000000000000006020830152604082019050919050565b600061286560198361347e565b91507f4552433732313a20617070726f766520746f2063616c6c6572000000000000006000830152602082019050919050565b60006128a5600b8361348f565b91507f5345434f4e445f574f52440000000000000000000000000000000000000000006000830152600b82019050919050565b60006128e5602c8361347e565b91507f4552433732313a206f70657261746f7220717565727920666f72206e6f6e657860008301527f697374656e7420746f6b656e00000000000000000000000000000000000000006020830152604082019050919050565b600061294b600d8361348f565b91507f3c2f746578743e3c2f7376673e000000000000000000000000000000000000006000830152600d82019050919050565b600061298b60388361347e565b91507f4552433732313a20617070726f76652063616c6c6572206973206e6f74206f7760008301527f6e6572206e6f7220617070726f76656420666f7220616c6c00000000000000006020830152604082019050919050565b60006129f1602a8361347e565b91507f4552433732313a2062616c616e636520717565727920666f7220746865207a6560008301527f726f2061646472657373000000000000000000000000000000000000000000006020830152604082019050919050565b6000612a5760298361347e565b91507f4552433732313a206f776e657220717565727920666f72206e6f6e657869737460008301527f656e7420746f6b656e00000000000000000000000000000000000000000000006020830152604082019050919050565b6000612abd602e8361347e565b91507f45524337323155524953746f726167653a2055524920736574206f66206e6f6e60008301527f6578697374656e7420746f6b656e0000000000000000000000000000000000006020830152604082019050919050565b6000612b2360028361348f565b91507f227d0000000000000000000000000000000000000000000000000000000000006000830152600282019050919050565b6000612b6360208361347e565b91507f4552433732313a206d696e7420746f20746865207a65726f20616464726573736000830152602082019050919050565b6000612ba360318361347e565b91507f45524337323155524953746f726167653a2055524920717565727920666f722060008301527f6e6f6e6578697374656e7420746f6b656e0000000000000000000000000000006020830152604082019050919050565b6000612c09602c8361347e565b91507f4552433732313a20617070726f76656420717565727920666f72206e6f6e657860008301527f697374656e7420746f6b656e00000000000000000000000000000000000000006020830152604082019050919050565b6000612c6f60298361347e565b91507f4552433732313a207472616e73666572206f6620746f6b656e2074686174206960008301527f73206e6f74206f776e00000000000000000000000000000000000000000000006020830152604082019050919050565b6000612cd5602f8361347e565b91507f4552433732314d657461646174613a2055524920717565727920666f72206e6f60008301527f6e6578697374656e7420746f6b656e00000000000000000000000000000000006020830152604082019050919050565b6000612d3b600a8361348f565b91507f7b226e616d65223a2022000000000000000000000000000000000000000000006000830152600a82019050919050565b6000612d7b60218361347e565b91507f4552433732313a20617070726f76616c20746f2063757272656e74206f776e6560008301527f72000000000000000000000000000000000000000000000000000000000000006020830152604082019050919050565b6000612de160558361348f565b91507f222c20226465736372697074696f6e223a202244656c616e746572612064652060008301527f667574626f6c20616c20617a6172222c2022696d616765223a2022646174613a60208301527f696d6167652f7376672b786d6c3b6261736536342c00000000000000000000006040830152605582019050919050565b6000612e6d600a8361348f565b91507f46495253545f574f5244000000000000000000000000000000000000000000006000830152600a82019050919050565b6000612ead601d8361348f565b91507f646174613a6170706c69636174696f6e2f6a736f6e3b6261736536342c0000006000830152601d82019050919050565b6000612eed60318361347e565b91507f4552433732313a207472616e736665722063616c6c6572206973206e6f74206f60008301527f776e6572206e6f7220617070726f7665640000000000000000000000000000006020830152604082019050919050565b612f4f81613619565b82525050565b6000612f6182846125f6565b915081905092915050565b6000612f7882856125f6565b9150612f8482846125f6565b91508190509392505050565b6000612f9c82866125f6565b9150612fa882856125f6565b9150612fb482846125f6565b9150819050949350505050565b6000612fcd8287612627565b9150612fd982866125f6565b9150612fe582856125f6565b9150612ff182846125f6565b9150612ffc8261293e565b915081905095945050505050565b6000613015826126a6565b915061302182846125f6565b915081905092915050565b6000613037826127b2565b915061304382846125f6565b915081905092915050565b600061305982612898565b915061306582846125f6565b915081905092915050565b600061307b82612d2e565b915061308782856125f6565b915061309282612dd4565b915061309e82846125f6565b91506130a982612b16565b91508190509392505050565b60006130c082612e60565b91506130cc82846125f6565b915081905092915050565b60006130e282612ea0565b91506130ee82846125f6565b915081905092915050565b600060208201905061310e6000830184612566565b92915050565b60006080820190506131296000830187612566565b6131366020830186612566565b6131436040830185612f46565b81810360608301526131558184612584565b905095945050505050565b60006040820190506131756000830185612566565b6131826020830184612f46565b9392505050565b600060208201905061319e6000830184612575565b92915050565b600060208201905081810360008301526131be81846125bd565b905092915050565b600060208201905081810360008301526131df8161270c565b9050919050565b600060208201905081810360008301526131ff81612772565b9050919050565b6000602082019050818103600083015261321f816127f2565b9050919050565b6000602082019050818103600083015261323f81612858565b9050919050565b6000602082019050818103600083015261325f816128d8565b9050919050565b6000602082019050818103600083015261327f8161297e565b9050919050565b6000602082019050818103600083015261329f816129e4565b9050919050565b600060208201905081810360008301526132bf81612a4a565b9050919050565b600060208201905081810360008301526132df81612ab0565b9050919050565b600060208201905081810360008301526132ff81612b56565b9050919050565b6000602082019050818103600083015261331f81612b96565b9050919050565b6000602082019050818103600083015261333f81612bfc565b9050919050565b6000602082019050818103600083015261335f81612c62565b9050919050565b6000602082019050818103600083015261337f81612cc8565b9050919050565b6000602082019050818103600083015261339f81612d6e565b9050919050565b600060208201905081810360008301526133bf81612ee0565b9050919050565b60006020820190506133db6000830184612f46565b92915050565b6000604051905081810181811067ffffffffffffffff821117156134085761340761379e565b5b8060405250919050565b600067ffffffffffffffff82111561342d5761342c61379e565b5b601f19601f8301169050602081019050919050565b60008190508160005260206000209050919050565b600081519050919050565b600081519050919050565b600082825260208201905092915050565b600082825260208201905092915050565b600081905092915050565b60006134a582613619565b91506134b083613619565b9250827fffffffffffffffffffffffffffffffffffffffffffffffffffffffffffffffff038211156134e5576134e4613711565b5b828201905092915050565b60006134fb82613619565b915061350683613619565b92508261351657613515613740565b5b828204905092915050565b600061352c82613619565b915061353783613619565b9250817fffffffffffffffffffffffffffffffffffffffffffffffffffffffffffffffff04831182151516156135705761356f613711565b5b828202905092915050565b600061358682613619565b915061359183613619565b9250828210156135a4576135a3613711565b5b828203905092915050565b60006135ba826135f9565b9050919050565b60008115159050919050565b60007fffffffff0000000000000000000000000000000000000000000000000000000082169050919050565b600073ffffffffffffffffffffffffffffffffffffffff82169050919050565b6000819050919050565b82818337600083830152505050565b60005b83811015613650578082015181840152602081019050613635565b8381111561365f576000848401525b50505050565b6000600282049050600182168061367d57607f821691505b602082108114156136915761369061376f565b5b50919050565b60006136a282613619565b91507fffffffffffffffffffffffffffffffffffffffffffffffffffffffffffffffff8214156136d5576136d4613711565b5b600182019050919050565b60006136eb82613619565b91506136f683613619565b92508261370657613705613740565b5b828206905092915050565b7f4e487b7100000000000000000000000000000000000000000000000000000000600052601160045260246000fd5b7f4e487b7100000000000000000000000000000000000000000000000000000000600052601260045260246000fd5b7f4e487b7100000000000000000000000000000000000000000000000000000000600052602260045260246000fd5b7f4e487b7100000000000000000000000000000000000000000000000000000000600052604160045260246000fd5b6000601f19601f8301169050919050565b6137e7816135af565b81146137f257600080fd5b50565b6137fe816135c1565b811461380957600080fd5b50565b613815816135cd565b811461382057600080fd5b50565b61382c81613619565b811461383757600080fd5b5056fe4142434445464748494a4b4c4d4e4f505152535455565758595a6162636465666768696a6b6c6d6e6f707172737475767778797a303132333435363738392b2fa26469706673582212205a160a86d8301bfacf98baeedccf5d61c274bfe3b163c23da3d0a81ed19eb40864736f6c634300080000333c73766720786d6c6e733d27687474703a2f2f7777772e77332e6f72672f323030302f73766727207072657365727665417370656374526174696f3d27784d696e594d696e206d656574272076696577426f783d273020302033353020333530273e3c7374796c653e2e62617365207b2066696c6c3a2077686974653b20666f6e742d66616d696c793a2073657269663b20666f6e742d73697a653a20323470783b207d3c2f7374796c653e3c726563742077696474683d273130302527206865696768743d2731303025272066696c6c3d27626c61636b27202f3e3c7465787420783d273530252720793d273530252720636c6173733d27626173652720646f6d696e616e742d626173656c696e653d276d6964646c652720746578742d616e63686f723d276d6964646c65273e",
  "linkReferences": {},
  "deployedLinkReferences": {}
}